:020000040000fa
:080000000002040000000000f2
:020000040000fa
:100008009a0200009a0200009a0200009a02000078
:100018009a0200009a0200009a0200009a02000068
:100028009a0200009a0200009a0200009a02000058
:100038009a0200009a0200009a0200009a02000048
:100048009a0200009a0200009a0200009a02000038
:100058009a0200009a0200009a0200009a02000028
:100068009a0200009a0200009a020000740300003d
:100078009a0200009a0200009a0200009a02000008
:100088009a0200009a0200009a0200009a020000f8
:100098009a0200009a0200009a0200009a020000e8
:1000a8009a0200009a0200009a0200009a020000d8
:1000b8009a0200009a0200009a0200009a020000c8
:1000c8009a0200009a0200009a0200009a020000b8
:1000d8009a0200009a0200009a0200009a020000a8
:1000e8009a0200009a0200009a0200009a02000098
:1000f8009a0200009a0200009a0200009a02000088
:100108009a0200009a0200009a0200009a02000077
:100118009a0200009a0200009a0200009a02000067
:100128009a0200009a0200009a0200009a02000057
:100138009a0200009a0200009a0200009a02000047
:100148009a0200009a0200009a0200009a02000037
:100158009a0200009a0200009a0200009a02000027
:100168009a0200009a0200009a0200009a02000017
:100178009a0200009a0200009a0200009a02000007
:100188009a0200009a0200009a0200009a020000f7
:100198009a0200009a0200009a0200009a020000e7
:1001a8009a0200009a0200009a0200009a020000d7
:1001b8009a0200009a0200009a0200009a020000c7
:1001c8009a0200009a0200009a0200009a020000b7
:1001d8009a0200009a0200009a0200009a020000a7
:1001e8009a0200009a0200009a0200009a02000097
:0801f8009a0200009a020000c7
:020000040000fa
:100208009a0200009a0200009a0200009a02000076
:100218009a0200009a0200009a0200009a02000066
:100228009a0200009a0200009a0200009a02000056
:100238009a0200009a0200009a0200009a02000046
:100248009a0200009a0200009a0200009a02000036
:100258009a0200009a0200009a0200009a02000026
:100268009a0200009a0200009a020000740300003b
:100278009a0200009a0200009a0200009a02000006
:100288009a0200009a0200009a0200009a020000f6
:100298009a0200009a0200009a0200009a020000e6
:1002a8009a0200009a0200009a0200009a020000d6
:1002b8009a0200009a0200009a0200009a020000c6
:1002c8009a0200009a0200009a0200009a020000b6
:1002d8009a0200009a0200009a0200009a020000a6
:1002e8009a0200009a0200009a0200009a02000096
:1002f8009a0200009a0200009a0200009a02000086
:100308009a0200009a0200009a0200009a02000075
:100318009a0200009a0200009a0200009a02000065
:100328009a0200009a0200009a0200009a02000055
:100338009a0200009a0200009a0200009a02000045
:100348009a0200009a0200009a0200009a02000035
:100358009a0200009a0200009a0200009a02000025
:100368009a0200009a0200009a0200009a02000015
:100378009a0200009a0200009a0200009a02000005
:100388009a0200009a0200009a0200009a020000f5
:100398009a0200009a0200009a0200009a020000e5
:1003a8009a0200009a0200009a0200009a020000d5
:1003b8009a0200009a0200009a0200009a020000c5
:1003c8009a0200009a0200009a0200009a020000b5
:1003d8009a0200009a0200009a0200009a020000a5
:1003e8009a0200009a0200009a0200009a02000095
:0803f8009a0200009a020000c5
:020000040000fa
:100400000f8020000e7f22000e01880000000000f7
:10041000000020000000e000020032000001200087
:10042000200288000c000700e03a200001002000b4
:1004300011000700000020000000e0000200320070
:100440000000020000000000640302000000000041
:100450000040da000000fe004440a9000000200037
:100460000000e0000300320000002000a00188002e
:100470004440a80000000600910188008000780038
:100480000000eb0015003700e280400032a0b4000d
:100490009101ba00e280400032a0b4009102ba009b
:1004a000e280400032a0b4000002eb00472bde00e7
:1004b000f507b200602ce10004003a000059eb009f
:1004c0008301e900fdff3e00040037006128e100e0
:1004d000010032000082eb00040007001101ba00a5
:1004e0000200e000e8ff3a00000006003159ba00bf
:1004f0008301e9000c0032002159ba008301e900b0
:10050000080032000400e00003003a00e2804000ee
:1005100032a0b400f5ff370011d9ba008301e90019
:10052000faff3a008100e800e180400032a0b40008
:0c053000000006000040da000000fe00a1
:020000040000fa
:10053c000003020000000000120302000000000093
:10054c000003020000000000000302000000000095
:10055c000003020000000000000302000000000085
:10056c000003020000000000000302000000000075
:10057c000003020000000000000302000000000065
:10058c000003020000000000000302000000000055
:10059c000003020000000000000302000000000045
:1005ac001203020000000000120302000000000011
:1005bc000003020000000000000302000000000025
:1005cc000003020000000000000302000000000015
:1005dc000003020000000000000302000000000005
:1005ec0012030200000000000003020000000000e3
:1005fc0000000600cc42a900240302000000000009
:10060c00cc42a80000000000000000000000000028
:10061c000000000000000600cc42a9004c030200c0
:10062c0000000000cc42a8002e03020000000000d5
:10063c0000000600cc42aa000000060000000000ea
:10064c00000000000000000000000000000000009e
:10065c00000000000000000000000000000000008e
:10066c00000000000000000000000000000000007e
:10067c00000000000000000000000000000000006e
:10068c00000000000000000000000000000000005e
:10069c000000000000000000000000000000060048
:1006ac000000fa00c8a2a8008660a9009660a80005
:1006bc006360a8000080fa00000006000000fa0049
:1006cc00f7ff07000082eb0064198800ce42a800f7
:1006dc00c842a900cc42a800ffff37003600f80042
:1006ec00809fbe00829fbe00849fbe00869fbe007e
:1006fc003400f80000002000a00188000000fa007f
:10070c008660a90055168000040220000482620055
:10071c00e00f520006003200551680000402200043
:10072c0004826200e00f520001003200c1ff07009a
:10073c000080fa003400f9004f03be004f02be00e7
:10074c004f01be004f00be003600f900004006000d
:020000040000fa
:04075c000000000099
:020000040000fa
:020000040001f9
:0457f800ad7c000084
:020000040000fa
:020000040001f9
:0457fc003f3f00002b
:00000001FF
